{
  "_format": "hh-sol-artifact-1",
  "contractName": "VaccinePassport",
  "sourceName": "contracts/VaccinePassport.sol",
  "abi": [
    {
      "inputs": [],
      "stateMutability": "nonpayable",
      "type": "constructor"
    },
    {
      "anonymous": false,
      "inputs": [
        {
          "indexed": true,
          "internalType": "address",
          "name": "account",
          "type": "address"
        },
        {
          "indexed": true,
          "internalType": "address",
          "name": "operator",
          "type": "address"
        },
        {
          "indexed": false,
          "internalType": "bool",
          "name": "approved",
          "type": "bool"
        }
      ],
      "name": "ApprovalForAll",
      "type": "event"
    },
    {
      "anonymous": false,
      "inputs": [
        {
          "indexed": false,
          "internalType": "uint8",
          "name": "version",
          "type": "uint8"
        }
      ],
      "name": "Initialized",
      "type": "event"
    },
    {
      "anonymous": false,
      "inputs": [
        {
          "indexed": true,
          "internalType": "address",
          "name": "previousOwner",
          "type": "address"
        },
        {
          "indexed": true,
          "internalType": "address",
          "name": "newOwner",
          "type": "address"
        }
      ],
      "name": "OwnershipTransferred",
      "type": "event"
    },
    {
      "anonymous": false,
      "inputs": [
        {
          "indexed": false,
          "internalType": "address",
          "name": "account",
          "type": "address"
        }
      ],
      "name": "Paused",
      "type": "event"
    },
    {
      "anonymous": false,
      "inputs": [
        {
          "indexed": true,
          "internalType": "address",
          "name": "operator",
          "type": "address"
        },
        {
          "indexed": true,
          "internalType": "address",
          "name": "from",
          "type": "address"
        },
        {
          "indexed": true,
          "internalType": "address",
          "name": "to",
          "type": "address"
        },
        {
          "indexed": false,
          "internalType": "uint256[]",
          "name": "ids",
          "type": "uint256[]"
        },
        {
          "indexed": false,
          "internalType": "uint256[]",
          "name": "values",
          "type": "uint256[]"
        }
      ],
      "name": "TransferBatch",
      "type": "event"
    },
    {
      "anonymous": false,
      "inputs": [
        {
          "indexed": true,
          "internalType": "address",
          "name": "operator",
          "type": "address"
        },
        {
          "indexed": true,
          "internalType": "address",
          "name": "from",
          "type": "address"
        },
        {
          "indexed": true,
          "internalType": "address",
          "name": "to",
          "type": "address"
        },
        {
          "indexed": false,
          "internalType": "uint256",
          "name": "id",
          "type": "uint256"
        },
        {
          "indexed": false,
          "internalType": "uint256",
          "name": "value",
          "type": "uint256"
        }
      ],
      "name": "TransferSingle",
      "type": "event"
    },
    {
      "anonymous": false,
      "inputs": [
        {
          "indexed": false,
          "internalType": "string",
          "name": "value",
          "type": "string"
        },
        {
          "indexed": true,
          "internalType": "uint256",
          "name": "id",
          "type": "uint256"
        }
      ],
      "name": "URI",
      "type": "event"
    },
    {
      "anonymous": false,
      "inputs": [
        {
          "indexed": false,
          "internalType": "address",
          "name": "account",
          "type": "address"
        }
      ],
      "name": "Unpaused",
      "type": "event"
    },
    {
      "inputs": [
        {
          "internalType": "address",
          "name": "account",
          "type": "address"
        },
        {
          "internalType": "uint256",
          "name": "id",
          "type": "uint256"
        }
      ],
      "name": "balanceOf",
      "outputs": [
        {
          "internalType": "uint256",
          "name": "",
          "type": "uint256"
        }
      ],
      "stateMutability": "view",
      "type": "function"
    },
    {
      "inputs": [
        {
          "internalType": "address[]",
          "name": "accounts",
          "type": "address[]"
        },
        {
          "internalType": "uint256[]",
          "name": "ids",
          "type": "uint256[]"
        }
      ],
      "name": "balanceOfBatch",
      "outputs": [
        {
          "internalType": "uint256[]",
          "name": "",
          "type": "uint256[]"
        }
      ],
      "stateMutability": "view",
      "type": "function"
    },
    {
      "inputs": [
        {
          "internalType": "address",
          "name": "account",
          "type": "address"
        },
        {
          "internalType": "uint256",
          "name": "id",
          "type": "uint256"
        },
        {
          "internalType": "uint256",
          "name": "value",
          "type": "uint256"
        }
      ],
      "name": "burn",
      "outputs": [],
      "stateMutability": "nonpayable",
      "type": "function"
    },
    {
      "inputs": [
        {
          "internalType": "address",
          "name": "account",
          "type": "address"
        },
        {
          "internalType": "uint256[]",
          "name": "ids",
          "type": "uint256[]"
        },
        {
          "internalType": "uint256[]",
          "name": "values",
          "type": "uint256[]"
        }
      ],
      "name": "burnBatch",
      "outputs": [],
      "stateMutability": "nonpayable",
      "type": "function"
    },
    {
      "inputs": [
        {
          "internalType": "uint256",
          "name": "id",
          "type": "uint256"
        }
      ],
      "name": "exists",
      "outputs": [
        {
          "internalType": "bool",
          "name": "",
          "type": "bool"
        }
      ],
      "stateMutability": "view",
      "type": "function"
    },
    {
      "inputs": [],
      "name": "initialize",
      "outputs": [],
      "stateMutability": "nonpayable",
      "type": "function"
    },
    {
      "inputs": [
        {
          "internalType": "address",
          "name": "account",
          "type": "address"
        },
        {
          "internalType": "address",
          "name": "operator",
          "type": "address"
        }
      ],
      "name": "isApprovedForAll",
      "outputs": [
        {
          "internalType": "bool",
          "name": "",
          "type": "bool"
        }
      ],
      "stateMutability": "view",
      "type": "function"
    },
    {
      "inputs": [
        {
          "internalType": "address",
          "name": "account",
          "type": "address"
        },
        {
          "internalType": "uint256",
          "name": "id",
          "type": "uint256"
        },
        {
          "internalType": "uint256",
          "name": "amount",
          "type": "uint256"
        },
        {
          "internalType": "bytes",
          "name": "data",
          "type": "bytes"
        }
      ],
      "name": "mint",
      "outputs": [],
      "stateMutability": "nonpayable",
      "type": "function"
    },
    {
      "inputs": [
        {
          "internalType": "address",
          "name": "to",
          "type": "address"
        },
        {
          "internalType": "uint256[]",
          "name": "ids",
          "type": "uint256[]"
        },
        {
          "internalType": "uint256[]",
          "name": "amounts",
          "type": "uint256[]"
        },
        {
          "internalType": "bytes",
          "name": "data",
          "type": "bytes"
        }
      ],
      "name": "mintBatch",
      "outputs": [],
      "stateMutability": "nonpayable",
      "type": "function"
    },
    {
      "inputs": [],
      "name": "owner",
      "outputs": [
        {
          "internalType": "address",
          "name": "",
          "type": "address"
        }
      ],
      "stateMutability": "view",
      "type": "function"
    },
    {
      "inputs": [],
      "name": "pause",
      "outputs": [],
      "stateMutability": "nonpayable",
      "type": "function"
    },
    {
      "inputs": [],
      "name": "paused",
      "outputs": [
        {
          "internalType": "bool",
          "name": "",
          "type": "bool"
        }
      ],
      "stateMutability": "view",
      "type": "function"
    },
    {
      "inputs": [],
      "name": "renounceOwnership",
      "outputs": [],
      "stateMutability": "nonpayable",
      "type": "function"
    },
    {
      "inputs": [
        {
          "internalType": "address",
          "name": "from",
          "type": "address"
        },
        {
          "internalType": "address",
          "name": "to",
          "type": "address"
        },
        {
          "internalType": "uint256[]",
          "name": "ids",
          "type": "uint256[]"
        },
        {
          "internalType": "uint256[]",
          "name": "amounts",
          "type": "uint256[]"
        },
        {
          "internalType": "bytes",
          "name": "data",
          "type": "bytes"
        }
      ],
      "name": "safeBatchTransferFrom",
      "outputs": [],
      "stateMutability": "nonpayable",
      "type": "function"
    },
    {
      "inputs": [
        {
          "internalType": "address",
          "name": "from",
          "type": "address"
        },
        {
          "internalType": "address",
          "name": "to",
          "type": "address"
        },
        {
          "internalType": "uint256",
          "name": "id",
          "type": "uint256"
        },
        {
          "internalType": "uint256",
          "name": "amount",
          "type": "uint256"
        },
        {
          "internalType": "bytes",
          "name": "data",
          "type": "bytes"
        }
      ],
      "name": "safeTransferFrom",
      "outputs": [],
      "stateMutability": "nonpayable",
      "type": "function"
    },
    {
      "inputs": [
        {
          "internalType": "address",
          "name": "operator",
          "type": "address"
        },
        {
          "internalType": "bool",
          "name": "approved",
          "type": "bool"
        }
      ],
      "name": "setApprovalForAll",
      "outputs": [],
      "stateMutability": "nonpayable",
      "type": "function"
    },
    {
      "inputs": [
        {
          "internalType": "string",
          "name": "newuri",
          "type": "string"
        }
      ],
      "name": "setURI",
      "outputs": [],
      "stateMutability": "nonpayable",
      "type": "function"
    },
    {
      "inputs": [
        {
          "internalType": "bytes4",
          "name": "interfaceId",
          "type": "bytes4"
        }
      ],
      "name": "supportsInterface",
      "outputs": [
        {
          "internalType": "bool",
          "name": "",
          "type": "bool"
        }
      ],
      "stateMutability": "view",
      "type": "function"
    },
    {
      "inputs": [
        {
          "internalType": "uint256",
          "name": "id",
          "type": "uint256"
        }
      ],
      "name": "totalSupply",
      "outputs": [
        {
          "internalType": "uint256",
          "name": "",
          "type": "uint256"
        }
      ],
      "stateMutability": "view",
      "type": "function"
    },
    {
      "inputs": [
        {
          "internalType": "address",
          "name": "newOwner",
          "type": "address"
        }
      ],
      "name": "transferOwnership",
      "outputs": [],
      "stateMutability": "nonpayable",
      "type": "function"
    },
    {
      "inputs": [],
      "name": "unpause",
      "outputs": [],
      "stateMutability": "nonpayable",
      "type": "function"
    },
    {
      "inputs": [
        {
          "internalType": "uint256",
          "name": "",
          "type": "uint256"
        }
      ],
      "name": "uri",
      "outputs": [
        {
          "internalType": "string",
          "name": "",
          "type": "string"
        }
      ],
      "stateMutability": "view",
      "type": "function"
    }
  ],
  "bytecode": "0x60806040523480156200001157600080fd5b506200001c62000022565b620000e4565b600054610100900460ff16156200008f5760405162461bcd60e51b815260206004820152602760248201527f496e697469616c697a61626c653a20636f6e747261637420697320696e697469604482015266616c697a696e6760c81b606482015260840160405180910390fd5b60005460ff9081161015620000e2576000805460ff191660ff9081179091556040519081527f7f26b83ff96e1f2b6a682f133852f6798a09c465da95921460cefb38474024989060200160405180910390a15b565b6125c980620000f46000396000f3fe608060405234801561001057600080fd5b50600436106101415760003560e01c8063715018a6116100b8578063a22cb4651161007c578063a22cb46514610299578063bd85b039146102ac578063e985e9c5146102cd578063f242432a14610309578063f2fde38b1461031c578063f5298aca1461032f57600080fd5b8063715018a614610253578063731133e91461025b5780638129fc1c1461026e5780638456cb59146102765780638da5cb5b1461027e57600080fd5b80632eb2c2d61161010a5780632eb2c2d6146101d75780633f4ba83a146101ea5780634e1273f4146101f25780634f558e79146102125780635c975abb146102355780636b20c4541461024057600080fd5b8062fdd58e1461014657806301ffc9a71461016c57806302fe53051461018f5780630e89341c146101a45780631f7fdffa146101c4575b600080fd5b6101596101543660046119f8565b610342565b6040519081526020015b60405180910390f35b61017f61017a366004611a38565b6103da565b6040519015158152602001610163565b6101a261019d366004611afd565b61042c565b005b6101b76101b2366004611b4e565b610440565b6040516101639190611bb4565b6101a26101d2366004611c7c565b6104d4565b6101a26101e5366004611d15565b6104ee565b6101a261053a565b610205610200366004611dbf565b61054c565b6040516101639190611ec5565b61017f610220366004611b4e565b600090815261012d6020526040902054151590565b60c95460ff1661017f565b6101a261024e366004611ed8565b610676565b6101a26106be565b6101a2610269366004611f4c565b6106d0565b6101a26106e4565b6101a261082d565b6097546040516001600160a01b039091168152602001610163565b6101a26102a7366004611fa1565b61083d565b6101596102ba366004611b4e565b600090815261012d602052604090205490565b61017f6102db366004611fdd565b6001600160a01b03918216600090815260666020908152604080832093909416825291909152205460ff1690565b6101a2610317366004612010565b61084c565b6101a261032a366004612075565b610891565b6101a261033d366004612090565b610907565b60006001600160a01b0383166103b25760405162461bcd60e51b815260206004820152602a60248201527f455243313135353a2061646472657373207a65726f206973206e6f742061207660448201526930b634b21037bbb732b960b11b60648201526084015b60405180910390fd5b5060009081526065602090815260408083206001600160a01b03949094168352929052205490565b60006001600160e01b03198216636cdb3d1360e11b148061040b57506001600160e01b031982166303a24d0760e21b145b8061042657506301ffc9a760e01b6001600160e01b03198316145b92915050565b61043461094a565b61043d816109a4565b50565b60606067805461044f906120c3565b80601f016020809104026020016040519081016040528092919081815260200182805461047b906120c3565b80156104c85780601f1061049d576101008083540402835291602001916104c8565b820191906000526020600020905b8154815290600101906020018083116104ab57829003601f168201915b50505050509050919050565b6104dc61094a565b6104e8848484846109b7565b50505050565b6001600160a01b03851633148061050a575061050a85336102db565b6105265760405162461bcd60e51b81526004016103a9906120fe565b6105338585858585610b12565b5050505050565b61054261094a565b61054a610cbf565b565b606081518351146105b15760405162461bcd60e51b815260206004820152602960248201527f455243313135353a206163636f756e747320616e6420696473206c656e677468604482015268040dad2e6dac2e8c6d60bb1b60648201526084016103a9565b6000835167ffffffffffffffff8111156105cd576105cd611a5c565b6040519080825280602002602001820160405280156105f6578160200160208202803683370190505b50905060005b845181101561066e5761064185828151811061061a5761061a61214c565b60200260200101518583815181106106345761063461214c565b6020026020010151610342565b8282815181106106535761065361214c565b602090810291909101015261066781612178565b90506105fc565b509392505050565b6001600160a01b038316331480610692575061069283336102db565b6106ae5760405162461bcd60e51b81526004016103a9906120fe565b6106b9838383610d11565b505050565b6106c661094a565b61054a6000610eb0565b6106d861094a565b6104e884848484610f02565b600054610100900460ff16158080156107045750600054600160ff909116105b8061071e5750303b15801561071e575060005460ff166001145b6107815760405162461bcd60e51b815260206004820152602e60248201527f496e697469616c697a61626c653a20636f6e747261637420697320616c72656160448201526d191e481a5b9a5d1a585b1a5e995960921b60648201526084016103a9565b6000805460ff1916600117905580156107a4576000805461ff0019166101001790555b6107c560405180606001604052806022815260200161257260229139610fed565b6107cd61101d565b6107d561104c565b6107dd61107b565b6107e561107b565b801561043d576000805461ff0019169055604051600181527f7f26b83ff96e1f2b6a682f133852f6798a09c465da95921460cefb38474024989060200160405180910390a150565b61083561094a565b61054a6110a2565b6108483383836110df565b5050565b6001600160a01b038516331480610868575061086885336102db565b6108845760405162461bcd60e51b81526004016103a9906120fe565b61053385858585856111c0565b61089961094a565b6001600160a01b0381166108fe5760405162461bcd60e51b815260206004820152602660248201527f4f776e61626c653a206e6577206f776e657220697320746865207a65726f206160448201526564647265737360d01b60648201526084016103a9565b61043d81610eb0565b6001600160a01b038316331480610923575061092383336102db565b61093f5760405162461bcd60e51b81526004016103a9906120fe565b6106b98383836112fc565b6097546001600160a01b0316331461054a5760405162461bcd60e51b815260206004820181905260248201527f4f776e61626c653a2063616c6c6572206973206e6f7420746865206f776e657260448201526064016103a9565b8051610848906067906020840190611943565b6001600160a01b0384166109dd5760405162461bcd60e51b81526004016103a990612193565b81518351146109fe5760405162461bcd60e51b81526004016103a9906121d4565b33610a0e81600087878787611418565b60005b8451811015610aaa57838181518110610a2c57610a2c61214c565b602002602001015160656000878481518110610a4a57610a4a61214c565b602002602001015181526020019081526020016000206000886001600160a01b03166001600160a01b031681526020019081526020016000206000828254610a92919061221c565b90915550819050610aa281612178565b915050610a11565b50846001600160a01b031660006001600160a01b0316826001600160a01b03167f4a39dc06d4c0dbc64b70af90fd698a233a518aa5d07e595d983b8c0526c8f7fb8787604051610afb929190612234565b60405180910390a46105338160008787878761142e565b8151835114610b335760405162461bcd60e51b81526004016103a9906121d4565b6001600160a01b038416610b595760405162461bcd60e51b81526004016103a990612262565b33610b68818787878787611418565b60005b8451811015610c51576000858281518110610b8857610b8861214c565b602002602001015190506000858381518110610ba657610ba661214c565b60209081029190910181015160008481526065835260408082206001600160a01b038e168352909352919091205490915081811015610bf75760405162461bcd60e51b81526004016103a9906122a7565b60008381526065602090815260408083206001600160a01b038e8116855292528083208585039055908b16825281208054849290610c3690849061221c565b9250508190555050505080610c4a90612178565b9050610b6b565b50846001600160a01b0316866001600160a01b0316826001600160a01b03167f4a39dc06d4c0dbc64b70af90fd698a233a518aa5d07e595d983b8c0526c8f7fb8787604051610ca1929190612234565b60405180910390a4610cb781878787878761142e565b505050505050565b610cc7611599565b60c9805460ff191690557f5db9ee0a495bf2e6ff9c91a7834c1ba4fdd244a5e8aa4e537bd38aeae4b073aa335b6040516001600160a01b03909116815260200160405180910390a1565b6001600160a01b038316610d375760405162461bcd60e51b81526004016103a9906122f1565b8051825114610d585760405162461bcd60e51b81526004016103a9906121d4565b6000339050610d7b81856000868660405180602001604052806000815250611418565b60005b8351811015610e43576000848281518110610d9b57610d9b61214c565b602002602001015190506000848381518110610db957610db961214c565b60209081029190910181015160008481526065835260408082206001600160a01b038c168352909352919091205490915081811015610e0a5760405162461bcd60e51b81526004016103a990612334565b60009283526065602090815260408085206001600160a01b038b1686529091529092209103905580610e3b81612178565b915050610d7e565b5060006001600160a01b0316846001600160a01b0316826001600160a01b03167f4a39dc06d4c0dbc64b70af90fd698a233a518aa5d07e595d983b8c0526c8f7fb8686604051610e94929190612234565b60405180910390a46040805160208101909152600090526104e8565b609780546001600160a01b038381166001600160a01b0319831681179093556040519116919082907f8be0079c531659141344cd1fd0a4f28419497f9722a3daafe3b4186f6b6457e090600090a35050565b6001600160a01b038416610f285760405162461bcd60e51b81526004016103a990612193565b336000610f34856115e2565b90506000610f41856115e2565b9050610f5283600089858589611418565b60008681526065602090815260408083206001600160a01b038b16845290915281208054879290610f8490849061221c565b909155505060408051878152602081018790526001600160a01b03808a1692600092918716917fc3d58168c5ae7397731d063d5bbf3d657854427343f4c083240f7aacaa2d0f62910160405180910390a4610fe48360008989898961162d565b50505050505050565b600054610100900460ff166110145760405162461bcd60e51b81526004016103a990612378565b61043d816116f7565b600054610100900460ff166110445760405162461bcd60e51b81526004016103a990612378565b61054a61171e565b600054610100900460ff166110735760405162461bcd60e51b81526004016103a990612378565b61054a61174e565b600054610100900460ff1661054a5760405162461bcd60e51b81526004016103a990612378565b6110aa611781565b60c9805460ff191660011790557f62e78cea01bee320cd4e420270b5ea74000d11b0c9f74754ebdbfc544b05a258610cf43390565b816001600160a01b0316836001600160a01b031614156111535760405162461bcd60e51b815260206004820152602960248201527f455243313135353a2073657474696e6720617070726f76616c20737461747573604482015268103337b91039b2b63360b91b60648201526084016103a9565b6001600160a01b03838116600081815260666020908152604080832094871680845294825291829020805460ff191686151590811790915591519182527f17307eab39ab6107e8899845ad3d59bd9653f200f220920489ca2b5937696c31910160405180910390a3505050565b6001600160a01b0384166111e65760405162461bcd60e51b81526004016103a990612262565b3360006111f2856115e2565b905060006111ff856115e2565b905061120f838989858589611418565b60008681526065602090815260408083206001600160a01b038c168452909152902054858110156112525760405162461bcd60e51b81526004016103a9906122a7565b60008781526065602090815260408083206001600160a01b038d8116855292528083208985039055908a1682528120805488929061129190849061221c565b909155505060408051888152602081018890526001600160a01b03808b16928c821692918816917fc3d58168c5ae7397731d063d5bbf3d657854427343f4c083240f7aacaa2d0f62910160405180910390a46112f1848a8a8a8a8a61162d565b505050505050505050565b6001600160a01b0383166113225760405162461bcd60e51b81526004016103a9906122f1565b33600061132e846115e2565b9050600061133b846115e2565b905061135b83876000858560405180602001604052806000815250611418565b60008581526065602090815260408083206001600160a01b038a1684529091529020548481101561139e5760405162461bcd60e51b81526004016103a990612334565b60008681526065602090815260408083206001600160a01b038b81168086529184528285208a8703905582518b81529384018a90529092908816917fc3d58168c5ae7397731d063d5bbf3d657854427343f4c083240f7aacaa2d0f62910160405180910390a4604080516020810190915260009052610fe4565b611420611781565b610cb78686868686866117c7565b6001600160a01b0384163b15610cb75760405163bc197c8160e01b81526001600160a01b0385169063bc197c819061147290899089908890889088906004016123c3565b602060405180830381600087803b15801561148c57600080fd5b505af19250505080156114bc575060408051601f3d908101601f191682019092526114b991810190612421565b60015b611569576114c861243e565b806308c379a0141561150257506114dd61245a565b806114e85750611504565b8060405162461bcd60e51b81526004016103a99190611bb4565b505b60405162461bcd60e51b815260206004820152603460248201527f455243313135353a207472616e7366657220746f206e6f6e2d455243313135356044820152732932b1b2b4bb32b91034b6b83632b6b2b73a32b960611b60648201526084016103a9565b6001600160e01b0319811663bc197c8160e01b14610fe45760405162461bcd60e51b81526004016103a9906124e4565b60c95460ff1661054a5760405162461bcd60e51b815260206004820152601460248201527314185d5cd8589b194e881b9bdd081c185d5cd95960621b60448201526064016103a9565b6040805160018082528183019092526060916000919060208083019080368337019050509050828160008151811061161c5761161c61214c565b602090810291909101015292915050565b6001600160a01b0384163b15610cb75760405163f23a6e6160e01b81526001600160a01b0385169063f23a6e6190611671908990899088908890889060040161252c565b602060405180830381600087803b15801561168b57600080fd5b505af19250505080156116bb575060408051601f3d908101601f191682019092526116b891810190612421565b60015b6116c7576114c861243e565b6001600160e01b0319811663f23a6e6160e01b14610fe45760405162461bcd60e51b81526004016103a9906124e4565b600054610100900460ff166104345760405162461bcd60e51b81526004016103a990612378565b600054610100900460ff166117455760405162461bcd60e51b81526004016103a990612378565b61054a33610eb0565b600054610100900460ff166117755760405162461bcd60e51b81526004016103a990612378565b60c9805460ff19169055565b60c95460ff161561054a5760405162461bcd60e51b815260206004820152601060248201526f14185d5cd8589b194e881c185d5cd95960821b60448201526064016103a9565b6001600160a01b03851661184f5760005b835181101561184d578281815181106117f3576117f361214c565b602002602001015161012d60008684815181106118125761181261214c565b602002602001015181526020019081526020016000206000828254611837919061221c565b90915550611846905081612178565b90506117d8565b505b6001600160a01b038416610cb75760005b8351811015610fe457600084828151811061187d5761187d61214c565b60200260200101519050600084838151811061189b5761189b61214c565b60200260200101519050600061012d60008481526020019081526020016000205490508181101561191f5760405162461bcd60e51b815260206004820152602860248201527f455243313135353a206275726e20616d6f756e74206578636565647320746f74604482015267616c537570706c7960c01b60648201526084016103a9565b600092835261012d60205260409092209103905561193c81612178565b9050611860565b82805461194f906120c3565b90600052602060002090601f01602090048101928261197157600085556119b7565b82601f1061198a57805160ff19168380011785556119b7565b828001600101855582156119b7579182015b828111156119b757825182559160200191906001019061199c565b506119c39291506119c7565b5090565b5b808211156119c357600081556001016119c8565b80356001600160a01b03811681146119f357600080fd5b919050565b60008060408385031215611a0b57600080fd5b611a14836119dc565b946020939093013593505050565b6001600160e01b03198116811461043d57600080fd5b600060208284031215611a4a57600080fd5b8135611a5581611a22565b9392505050565b634e487b7160e01b600052604160045260246000fd5b601f8201601f1916810167ffffffffffffffff81118282101715611a9857611a98611a5c565b6040525050565b600067ffffffffffffffff831115611ab957611ab9611a5c565b604051611ad0601f8501601f191660200182611a72565b809150838152848484011115611ae557600080fd5b83836020830137600060208583010152509392505050565b600060208284031215611b0f57600080fd5b813567ffffffffffffffff811115611b2657600080fd5b8201601f81018413611b3757600080fd5b611b4684823560208401611a9f565b949350505050565b600060208284031215611b6057600080fd5b5035919050565b6000815180845260005b81811015611b8d57602081850181015186830182015201611b71565b81811115611b9f576000602083870101525b50601f01601f19169290920160200192915050565b602081526000611a556020830184611b67565b600067ffffffffffffffff821115611be157611be1611a5c565b5060051b60200190565b600082601f830112611bfc57600080fd5b81356020611c0982611bc7565b604051611c168282611a72565b83815260059390931b8501820192828101915086841115611c3657600080fd5b8286015b84811015611c515780358352918301918301611c3a565b509695505050505050565b600082601f830112611c6d57600080fd5b611a5583833560208501611a9f565b60008060008060808587031215611c9257600080fd5b611c9b856119dc565b9350602085013567ffffffffffffffff80821115611cb857600080fd5b611cc488838901611beb565b94506040870135915080821115611cda57600080fd5b611ce688838901611beb565b93506060870135915080821115611cfc57600080fd5b50611d0987828801611c5c565b91505092959194509250565b600080600080600060a08688031215611d2d57600080fd5b611d36866119dc565b9450611d44602087016119dc565b9350604086013567ffffffffffffffff80821115611d6157600080fd5b611d6d89838a01611beb565b94506060880135915080821115611d8357600080fd5b611d8f89838a01611beb565b93506080880135915080821115611da557600080fd5b50611db288828901611c5c565b9150509295509295909350565b60008060408385031215611dd257600080fd5b823567ffffffffffffffff80821115611dea57600080fd5b818501915085601f830112611dfe57600080fd5b81356020611e0b82611bc7565b604051611e188282611a72565b83815260059390931b8501820192828101915089841115611e3857600080fd5b948201945b83861015611e5d57611e4e866119dc565b82529482019490820190611e3d565b96505086013592505080821115611e7357600080fd5b50611e8085828601611beb565b9150509250929050565b600081518084526020808501945080840160005b83811015611eba57815187529582019590820190600101611e9e565b509495945050505050565b602081526000611a556020830184611e8a565b600080600060608486031215611eed57600080fd5b611ef6846119dc565b9250602084013567ffffffffffffffff80821115611f1357600080fd5b611f1f87838801611beb565b93506040860135915080821115611f3557600080fd5b50611f4286828701611beb565b9150509250925092565b60008060008060808587031215611f6257600080fd5b611f6b856119dc565b93506020850135925060408501359150606085013567ffffffffffffffff811115611f9557600080fd5b611d0987828801611c5c565b60008060408385031215611fb457600080fd5b611fbd836119dc565b915060208301358015158114611fd257600080fd5b809150509250929050565b60008060408385031215611ff057600080fd5b611ff9836119dc565b9150612007602084016119dc565b90509250929050565b600080600080600060a0868803121561202857600080fd5b612031866119dc565b945061203f602087016119dc565b93506040860135925060608601359150608086013567ffffffffffffffff81111561206957600080fd5b611db288828901611c5c565b60006020828403121561208757600080fd5b611a55826119dc565b6000806000606084860312156120a557600080fd5b6120ae846119dc565b95602085013595506040909401359392505050565b600181811c908216806120d757607f821691505b602082108114156120f857634e487b7160e01b600052602260045260246000fd5b50919050565b6020808252602e908201527f455243313135353a2063616c6c6572206973206e6f7420746f6b656e206f776e60408201526d195c881bdc88185c1c1c9bdd995960921b606082015260800190565b634e487b7160e01b600052603260045260246000fd5b634e487b7160e01b600052601160045260246000fd5b600060001982141561218c5761218c612162565b5060010190565b60208082526021908201527f455243313135353a206d696e7420746f20746865207a65726f206164647265736040820152607360f81b606082015260800190565b60208082526028908201527f455243313135353a2069647320616e6420616d6f756e7473206c656e677468206040820152670dad2e6dac2e8c6d60c31b606082015260800190565b6000821982111561222f5761222f612162565b500190565b6040815260006122476040830185611e8a565b82810360208401526122598185611e8a565b95945050505050565b60208082526025908201527f455243313135353a207472616e7366657220746f20746865207a65726f206164604082015264647265737360d81b606082015260800190565b6020808252602a908201527f455243313135353a20696e73756666696369656e742062616c616e636520666f60408201526939103a3930b739b332b960b11b606082015260800190565b60208082526023908201527f455243313135353a206275726e2066726f6d20746865207a65726f206164647260408201526265737360e81b606082015260800190565b60208082526024908201527f455243313135353a206275726e20616d6f756e7420657863656564732062616c604082015263616e636560e01b606082015260800190565b6020808252602b908201527f496e697469616c697a61626c653a20636f6e7472616374206973206e6f74206960408201526a6e697469616c697a696e6760a81b606082015260800190565b6001600160a01b0386811682528516602082015260a0604082018190526000906123ef90830186611e8a565b82810360608401526124018186611e8a565b905082810360808401526124158185611b67565b98975050505050505050565b60006020828403121561243357600080fd5b8151611a5581611a22565b600060033d11156124575760046000803e5060005160e01c5b90565b600060443d10156124685790565b6040516003193d81016004833e81513d67ffffffffffffffff816024840111818411171561249857505050505090565b82850191508151818111156124b05750505050505090565b843d87010160208285010111156124ca5750505050505090565b6124d960208286010187611a72565b509095945050505050565b60208082526028908201527f455243313135353a204552433131353552656365697665722072656a656374656040820152676420746f6b656e7360c01b606082015260800190565b6001600160a01b03868116825285166020820152604081018490526060810183905260a06080820181905260009061256690830184611b67565b97965050505050505056fe68747470733a2f2f676174657761792e70696e6174612e636c6f75642f697066732fa26469706673582212207d6d2026731c71be1853fab9ef9c8ee798e2fc7822beb1023992e27f7054cf1c64736f6c63430008090033",
  "linkReferences": {},
  "deployedLinkReferences": {}
}